S010000042617369635F434D2E7372656343
S11300000C942A000C9447000C9447000C9447006D
S11300100C9447000C9447000C9447000C94470040
S11300200C9447000C9447000C9447000C94470030
S11300300C9447000C940F030C9447000C943F035A
S11300400C9447000C9447000C9447000C94470010
S11300500C94470011241FBECFE5D8E0DEBFCDBF0E
S113006010E0A0E6B0E0ECEEF8E002C005900D92DE
S1130070A638B107D9F722E0A6E8B0E001C01D9286
S1130080A632B207E1F70E94B0000C9474040C94F9
S1130090000080E00E94A700089581E00E94A7006C
S11300A008950F931F93CF93DF93CDB7DEB7EC97EB
S11300B00FB6F894DEBF0FBECDBF8EE0E7E6F0E0EA
S11300C0DE01119601900D928A95E1F7FE013F96AB
S11300D080E1DF011D928A95E9F78E01015E1F4FD1
S11300E08EE1F80111928A95E9F780E00E949E0062
S11300F081E00E949E0080E00E948903789489E454
S113010090E00E947F038DE490E00E948403CE017E
S113011001960E94E003C8010E945A04EC960FB6AF
S1130120F894DEBF0FBECDBFDF91CF911F910F9129
S113013008950E9418040E9497030895883228F4B1
S113014060E00E94B50080E0089581E0089588325F
S113015028F461E00E94C60180E0089581E00895DA
S11301600E9451000E949900FDCF982F9695969574
S113017096958770613009F459C020F0623009F413
S1130180A9C0FCC09130C9F028F0923049F19330F5
S1130190D1F1F6C04AB321E030E0B90102C0660FE4
S11301A0771F8A95E2F7CB01942F982B9ABB9BB3C8
S11301B0809589238BBB80E0089547B321E030E02C
S11301C0B90102C0660F771F8A95E2F7CB01942F1D
S11301D0982B97BB98B38095892388BB80E00895BA
S11301E044B321E030E0B90102C0660F771F8A955D
S11301F0E2F7CB01942F982B94BB95B38095892378
S113020085BB80E0089541B321E030E0B90102C02C
S1130210660F771F8A95E2F7CB01942F982B91BB39
S113022092B38095892382BB80E008959130C9F010
S113023028F0923049F19330D1F1A4C04AB321E0BF
S113024030E0B90102C0660F771F8A95E2F7CB014F
S11302508095942F98239ABB9BB389238BBB80E012
S1130260089547B321E030E0B90102C0660F771F5B
S11302708A95E2F7CB018095942F982397BB98B386
S1130280892388BB80E0089544B321E030E0B901BC
S113029002C0660F771F8A95E2F7CB018095942FF1
S11302A0982394BB95B3892385BB80E0089541B31B
S11302B021E030E0B90102C0660F771F8A95E2F7AA
S11302C0CB018095942F982391BB92B3892382BB51
S11302D080E008959130C9F028F0923049F19330CC
S11302E0D1F152C04AB321E030E0B90102C0660F37
S11302F0771F8A95E2F7CB01962F909594239ABBAA
S11303009BB3892B8BBB80E0089547B321E030E099
S1130310B90102C0660F771F8A95E2F7CB01962FC9
S11303209095942397BB98B3892B88BB80E008955C
S113033044B321E030E0B90102C0660F771F8A950B
S1130340E2F7CB01962F9095942394BB95B3892B18
S113035085BB80E0089541B321E030E0B90102C0DB
S1130360660F771F8A95E2F7CB01962F9095942319
S113037091BB92B3892B82BB80E0089581E00895FC
S113038081E0089581E0089581E00895982F96957D
S1130390969596958770662309F443C0613009F0F9
S11303A084C09130A1F028F09230F9F0933059F1E3
S11303B07EC04BB321E030E0B90102C0660F771F65
S11303C08A95E2F7CB01842B8BBB80E0089548B378
S11303D021E030E0B90102C0660F771F8A95E2F789
S11303E0CB01842B88BB80E0089545B321E030E045
S11303F0B90102C0660F771F8A95E2F7CB01842BFF
S113040085BB80E0089542B321E030E0B90102C029
S1130410660F771F8A95E2F7CB01842B82BB80E0BD
S113042008959130A9F028F0923009F1933071F1D8
S113043040C04BB321E030E0B90102C0660F771F22
S11304408A95E2F7CB01809584238BBB80E00895E5
S113045048B321E030E0B90102C0660F771F8A95E6
S1130460E2F7CB018095842388BB80E0089545B3EF
S113047021E030E0B90102C0660F771F8A95E2F7E8
S1130480CB018095842385BB80E0089542B321E0AD
S113049030E0B90102C0660F771F8A95E2F7CB01FD
S11304A08095842382BB80E0089583E0089581E0F1
S11304B0089581E00895FC0180B5806880BD30977F
S11304C009F4A1C08181813041F018F0823049F0F3
S11304D00EC08AB188608AB90AC08AB180618AB9BB
S11304E006C08AB180618AB98AB188608AB980817C
S11304F0882319F0813041F00CC08BB18D7F8BB90A
S113050083E389B910BC05C08BB182608BB919B87B
S113051010BC8281813059F018F0823079F014C017
S113052080B58F7E80BD80B58F7D80BD0DC080B5C8
S11305308F7E80BD80B5806280BD06C080B580613D
S113054080BD80B5806280BD8381882319F08130AD
S113055029F007C080B5806480BD03C080B58F7B5F
S113056080BD8481882319F0813029F007C080B5CB
S1130570877F80BD03C080B5886080BD858182305F
S113058009F128F4882341F0813089F03EC083309A
S113059021F1843069F139C080B58D7F80BD80B58B
S11305A08B7F80BD8AB18B7F8AB981E0089580B545
S11305B0826080BD80B58B7F80BD8AB18B7F8AB914
S11305C081E0089580B58D7F80BD80B5846080BD55
S11305D08AB18B7F8AB981E0089580B5826080BD3D
S11305E080B5846080BD8AB18B7F8AB981E008952B
S11305F080B5826080BD80B5846080BD8AB184602E
S11306008AB981E0089582E0089581E008958AB16D
S113061080688AB908958AB18F778AB908951F923C
S11306200F920FB60F9211242F933F934F935F9322
S11306306F937F938F939F93AF93BF93EF93FF93A6
S1130640E0918800F0918900309709F00995FF91B5
S1130650EF91BF91AF919F918F917F916F915F9136
S11306604F913F912F910F900FBE0F901F901895AF
S11306708CB10895909389008093880008951F9207
S11306800F920FB60F9211242F933F934F935F93C2
S11306906F937F938F939F93AF93BF93EF93FF9346
S11306A0E0918600F0918700309709F00995FF9159
S11306B0EF91BF91AF919F918F917F916F915F91D6
S11306C04F913F912F910F900FBE0F901F9018954F
S11306D08AB180648AB908958AB18F7B8AB90895F2
S11306E0909387008093860008958CB9089581E0E3
S11306F080939400089583E08093930008959093E9
S113070092008093910008959093900080938F00BD
S11307100895882321F0833040F480E0089580E632
S113072090E00E945B0280E0089581E0089580914A
S11307309400813009F043C020918E0030E0F9012B
S1130740EE0FFF1FE35AFE4F0190F081E02D8091E0
S11307506600E80FF11D8081882341F00E94750333
S1130760809166008F5F8093660026C0F901319600
S1130770EE0FFF1FE35AFE4F80819181892B59F0C0
S113078086E20E9475031092660080918E008F5F4E
S113079080938E0011C086E20E94750381E08093ED
S11307A06600109225020E946C03E0919100F09182
S11307B09200309709F0099582E08093940008959F
S11307C0CF93DF939C0180912502811121C0E9011F
S11307D00E94680380918D00FE01E80FF11D808165
S11307E00E947503E0918D00F0E0EE0FFF1FE35AC5
S11307F0FE4FD183C08387E793E00E94700380910A
S11308008D008F5F80938D0081E0809325020DC061
S113081090918D00E92FF0E0EE0FFF1FE35AFE4F99
S1130820318320839F5F90938D00DF91CF91089552
S1130830CF93DF93809193008330C9F5E0918C00CE
S1130840F0E0EE0FFF1FEB56FF4FC081D181809186
S11308508B00C80FD11D0E943803888320918C001F
S1130860E22FF0E0EE0FFF1FEB56FF4F0190F081F7
S1130870E02D80918B00E80FF11D9081963221F0DC
S11308808F5F80938B0010C0963271F42F5F20939A
S11308908C0010928B000E940B03E0918F00F0916A
S11308A09000309709F0099584E080939300DF91DC
S11308B0CF910895CF93DF93EC010E940703E09159
S11308C08A00F0E0EE0FFF1FEB56FF4FD183C08389
S11308D08BE793E00E943A0380918A008F5F8093B4
S10F08E08A00DF91CF910895F894FFCFB7
S11308EC0002000100030142434D204F7065726108
S11308FC74696E6700000000000000000000000036
S109090C000000000000E1
S9030000FC
